:020000040000FA
:100000000C9462000C948A000C948A000C948A0070
:100010000C948A000C948A000C948A000C948A0038
:100020000C94520B0C948A000C948A000C94960A3F
:100030000C948A000C948A000C948A000C948A0018
:100040000C942D090C948A000C94FB080C94D50890
:100050000C948A000C948A000C948A000C948A00F8
:100060000C9477090C948A000000000024002700FB
:100070002A0000000000250028002B0000000008D6
:10008000000201000003040700000000000000005F
:1000900000000000230026002900040404040404D6
:1000A0000404020202020202030303030303010227
:1000B00004081020408001020408102001020408F6
:1000C0001020050C11241FBECFEFD8E0DEBFCDBF3E
:1000D00012E0A0E0B1E0E4EFF1E302C005900D9280
:1000E000AA37B107D9F725E0AAE7B2E001C01D920F
:1000F000A438B207E1F710E0C2E6D0E004C02197CF
:10010000FE010E94F516C136D107C9F70E949F0C67
:100110000C94F8180C940000CF92DF92EF92FF92AB
:10012000DC01A03282E0B807D4F5A53BB10514F09C
:10013000A4EBB0E04091580528E830E0241B3109D9
:1001400047FD3395220F331F220F331F6901330FF1
:10015000EE08FF084091590528E532E0241B3109DB
:1001600047FD3395220F331F220F331F032E000C40
:10017000440B550B2C193D094E095F09B7FF02C00E
:10018000B0E0A0E00E94801624EB30E040E050E0B8
:100190000E945616C20ED31EE41EF51ED601E09133
:1001A0005705EC3080F52091580588E890E0821BD7
:1001B000910927FD9395880F991F880F991FA817FC
:1001C000B90784F02091590588E592E0821B9109D6
:1001D00027FD9395880F991F880F991FA817B907B6
:1001E0000CF4CD010297880F991F4FB7F8942E2F6A
:1001F00030E0F901EE0FFF1FE20FF31FE75EFB4F48
:10020000928381834FBFFF90EF90DF90CF9008954E
:10021000AEE3B4E011968C93119790E0FC01E255A7
:10022000FF4FE4911496EC931497FC01E656FF4FB0
:10023000E491F0E0EE0FFF1FE057FF4F859194919E
:1002400013969C938E93129708950F931F93CF93B9
:10025000DF93E0914A05F0914B0540916F03808553
:1002600010E0481708F064C0142F117000916E035D
:1002700001114FC0842F90E0880F991FE80FF91FDC
:100280000184F285E02D2CEE3FEF112311F024E1E3
:1002900030E0C0916C03D0916D032C0F3D1FC9015C
:1002A00063E470E00E94DA16E617F70760F0C90110
:1002B00068E270E00E94DA166F5F7F4F81E090E0A5
:1002C0006E177F0710F52C0F3D1FC90163E470E026
:1002D0000E94DA16E617F70750F0C90168E270E0ED
:1002E0000E94DA166F5F7F4F6E177F0760F42C0F46
:1002F0003D1FC90163E470E00E94DA16E617F707B4
:10030000E8F41FEF15C082E090E090936B038093B8
:100310006A030F5F00936E0380916A0390916B03F1
:100320000817190628F010926E034F5F40936F0371
:10033000812FDF91CF911F910F910895C90168E23C
:1003400070E00E94DA166F5F7F4F6E177F07C8F26A
:1003500083E090E0DACF08950895AF92BF92CF92F4
:10036000DF92EF92FF920F931F93CF93DF936C0175
:100370007B018B01040F151FEB015E01AE18BF0856
:10038000C017D10759F06991D601ED91FC91019008
:10039000F081E02DC6010995892B79F7C501DF9120
:1003A000CF911F910F91FF90EF90DF90CF90BF9072
:1003B000AF900895FC01448155816081718187E28D
:1003C00095E00C94AD01FC01538D448D252F30E058
:1003D000842F90E0821B930B541710F0CF96089552
:1003E00001970895FC01918D828D981761F0A28D7F
:1003F000AE0FBF2FB11D5D968C91928D9F5F9F7345
:10040000928F90E008958FEF9FEF0895FC01918DFA
:10041000828D981731F0828DE80FF11D858D90E067
:1004200008958FEF9FEF0895FC01918D228D892F04
:1004300090E0805C9F4F821B91098F7399270895EC
:1004400080E793E00E94140221E0892B09F420E068
:10045000822F089580E090E0892B29F00E942002ED
:1004600081110C9400000895FC01A48DA80FB92FF0
:10047000B11DA35ABF4F2C91848D90E001968F73CC
:100480009927848FA689B7892C93A089B1898C91EB
:10049000837080648C93938D848D981306C002883A
:1004A000F389E02D80818F7D80830895EF92FF9204
:1004B0000F931F93CF93DF93EC0181E0888F9B8D87
:1004C0008C8D98131AC0E889F989808185FF15C041
:1004D0009FB7F894EE89FF896083E889F989808164
:1004E0008370806480839FBF81E090E0DF91CF9133
:1004F0001F910F91FF90EF900895F62E0B8D10E055
:100500000F5F1F4F0F731127E02E8C8D8E110CC0C3
:100510000FB607FCFACFE889F989808185FFF5CF0E
:10052000CE010E943402F1CFEB8DEC0FFD2FF11DB7
:10053000E35AFF4FF0829FB7F8940B8FEA89FB894B
:1005400080818062CFCFCF93DF93EC01888D8823A9
:10055000B9F0AA89BB89E889F9898C9185FD03C026
:10056000808186FD0DC00FB607FCF7CF8C9185FF0B
:10057000F2CF808185FFEDCFCE010E943402E9CF1A
:10058000DF91CF910895833081F028F4813099F084
:100590008230A9F008958730A9F08830C9F08430FE
:1005A000B1F4809180008F7D03C0809180008F77AF
:1005B00080938000089584B58F7784BD089584B5B5
:1005C0008F7DFBCF8091B0008F778093B00008952E
:1005D0008091B0008F7DF9CF1F93CF93DF93282FA9
:1005E00030E0F901E458FF4F8491F901E255FF4FE3
:1005F000D491F901E656FF4FC491CC23A9F0162FF0
:1006000081110E94C302EC2FF0E0EE0FFF1FEE58A5
:10061000FF4FA591B4918FB7F894EC91111108C0D8
:10062000D095DE23DC938FBFDF91CF911F9108958A
:10063000DE2BF8CFCF93DF9390E0FC01E255FF4F24
:10064000249186569F4FFC0184918823D1F090E03D
:10065000880F991FFC01E859FF4FA591B491FC0147
:10066000EE58FF4FC591D49161110EC09FB7F89419
:100670008C91E22FE0958E238C932881E223E883EE
:100680009FBFDF91CF9108958FB7F894EC91E22B43
:10069000EC938FBFF6CF1F93CF93DF93182FEB010F
:1006A00061E00E941A03209739F460E0812FDF9106
:1006B000CF911F910C94EC02CF3FD10511F461E072
:1006C000F5CFE12FF0E0E458FF4FE491E33031F152
:1006D00040F4E130B1F0E230E1F0C038D1057CF710
:1006E000E4CFE73029F1E83059F1E430B1F78091F7
:1006F0008000806280938000D0938B00C0938A003A
:1007000004C084B5806884BDC7BDDF91CF911F91BF
:10071000089584B5806284BDC8BDF7CF8091800004
:10072000806880938000D0938900C0938800EDCFCB
:100730008091B00080688093B000C093B300E5CF93
:100740008091B00080628093B000C093B400DDCF90
:100750003FB7F89480912E0390912F03A09130031E
:10076000B091310326B5A89B05C02F3F19F0019623
:10077000A11DB11D3FBFBA2FA92F982F8827BC01FB
:10078000CD01620F711D811D911D42E0660F771F23
:10079000881F991F4A95D1F708958F929F92AF9223
:1007A000BF92CF92DF92EF92FF924B015C010E94C9
:1007B000A8036B017C010E94A8036C197D098E09B6
:1007C0009F09683E734081059105A8F321E0821AD4
:1007D0009108A108B10888EEC80E83E0D81EE11C7C
:1007E000F11C81149104A104B10429F7FF90EF904A
:1007F000DF90CF90BF90AF909F908F900895209101
:10080000E302260F3327331F21323105ECF4209108
:100810000703FC0190E080E0243069F082E0089555
:10082000A091E3022191AC014D535D4FA40FB52F70
:10083000B11D2C930196861798F38091E302680FFF
:100840006093E30280E0089581E008951092070329
:1008500081E0809309031092080361E082E10E9425
:10086000EC0261E083E10E94EC02E9EBF0E08081C0
:100870008E7F808380818D7F808388E48093B80021
:1008800085E48093BC000895CF93DF9391E090932B
:10089000C2028823B9F0C091B800D091BA0080910B
:1008A000BC008A7B8093BC0060E082E10E94EC0285
:1008B00060E083E10E94EC020E942604D093BA001B
:1008C000C093B800DF91CF9108950895E091390366
:1008D00080913803E81730F4F0E0E356FD4F808153
:1008E00090E008958FEF9FEF0895909139038091E4
:1008F00038032FEF3FEF981748F4E92FF0E0E35665
:10090000FD4F208130E09F5F90933903C901089526
:100910008091380390913903891B990B0895CF92E8
:10092000DF92EF92FF920F931F93CF93DF937C019F
:10093000CB018A0120919C02222389F0EB016B01FB
:10094000C40ED51ECC15DD0569F06991D701ED9176
:10095000FC910190F081E02DC7010995F3CF642F40
:100960000E94FF03C801DF91CF911F910F91FF906B
:10097000EF90DF90CF900895CF93DF931F92CDB784
:10098000DEB7698320919C022223F9F0209136037F
:10099000203258F021E030E0FC013383228390E0E4
:1009A00080E00F90DF91CF91089580913703E82F79
:1009B000F0E0E458FD4F998190838F5F8093370377
:1009C0008093360381E090E0ECCF61E0CE010196A8
:1009D0000E94FF03F7CFCF92DF92EF92FF920F9327
:1009E0001F93CF93DF93FC01C48121E020939C02ED
:1009F000C0937B0210923703109236038385682BD5
:100A00008DE094E00E94BC04D0913603D13208F00E
:100A100092C00E94A8036B017C01809107038111A1
:100A200065C082E08093070381E0809309038FEF24
:100A30008093060310922B03D0932A03ACE7B2E015
:100A4000EAE0F3E080E0D81385C010922C03809197
:100A50002C03CC0FC82BC0932C038091080381304A
:100A600009F07CC0109208030E94A8036B017C016E
:100A700080912C038093BB008091BE029091BF02B5
:100A8000A091C002B091C102892B8A2B8B2B99F0C7
:100A90000E94A8030091BE021091BF022091C002E3
:100AA0003091C1026C197D098E099F09061717073D
:100AB00028073907E0F18091BC0083FDD9CF85EC90
:100AC0008093BC000E94A8036B017C018091070306
:100AD000823009F445C0809106038F3F61F1809117
:100AE0000603803241F18091060325C08091BE0249
:100AF0009091BF02A091C002B091C102892B8A2BB4
:100B00008B2B09F48ACF0E94A8030091BE0210919A
:100B1000BF022091C0023091C1026C197D098E097B
:100B20009F09061717072807390708F076CF809125
:100B3000BD020E94440410923703109236031092B3
:100B40009C02DF91CF911F910F91FF90EF90DF906A
:100B5000CF9008959D9191938F5F75CF85EEB0CF23
:100B60008091BE029091BF02A091C002B091C102DB
:100B7000892B8A2B8B2B09F4A9CF0E94A803009103
:100B8000BE021091BF022091C0023091C1026C19C7
:100B90007D098E099F09061717072807390708F0EE
:100BA00095CFC5CF089590E080E0089590E080E073
:100BB0000E948C0068EE73E080E090E00E94CD031C
:100BC0008EE190E00C948C00CF93DF9321E08E3384
:100BD000920731F56FEF70E089E00E944B0370E0FF
:100BE00060E08AE00E944B0370E060E08BE00E94CE
:100BF0004B0368EE73E080E090E00E94CD0370E06C
:100C000060E089E00E944B0370E060E08AE00E94AF
:100C10004B0370E060E08BE0DF91CF910C944B03CD
:100C200021E08234920741F470E060E089E00E94A4
:100C30004B036FEF70E0D5CF6FEF70E021E08834A9
:100C40009207A1F321E08F34920769F46FEF70E00F
:100C500089E00E944B036FEF70E08AE00E944B0333
:100C60006FEF70E0C3CFC2E0D0E08555914029F02E
:100C7000DF91CF910895C1E0D0E06FEF70E089E09F
:100C80000E944B0370E060E08AE00E944B0370E03A
:100C900060E08BE00E944B0364EF71E080E090E045
:100CA0000E94CD0370E060E089E00E944B0370E099
:100CB00060E08AE00E944B0370E060E08BE00E94FD
:100CC0004B0364EF71E080E090E00E94CD03219738
:100CD00091F6CECF7F928F929F92AF92BF92CF929A
:100CE000DF92EF92FF920F931F93CF93DF93782EB3
:100CF000EA01E0914A05F0914B053F968B010C5EAD
:100D00001F4F43E4C42ED12CC801B6010E94DA164D
:100D10005B0158E2E52EF12CC801B7010E94DA16FA
:100D20008B010F5F1F4F6497CE01B6010E94DA1648
:100D30004B01CE01B7010E94DA16EB012196245136
:100D40003109C901B6010E94DA166B01C901B70168
:100D50000E94DA166F5F7F4F20E030E0A901A0E02B
:100D6000808191818A159B0570F10817190758F148
:100D7000828193818815990518F1C817D90728F140
:100D8000220F331F441F551F21603496AF5F7A1224
:100D9000E7CF20933E0530933F05409340055093A5
:100DA000410581E0DF91CF911F910F91FF90EF906E
:100DB000DF90CF90BF90AF909F908F907F900895DD
:100DC0008C159D0510F480E0EDCF68177907D8F3F6
:100DD000220F331F441F551FD8CF8CE390E00E9491
:100DE0008C0068EE73E080E090E00E94CD038EE11D
:100DF00090E00C948C000F931F93CF938C01C62F1F
:100E00000E94EB046C2F6460C8010E94EB046C2FFD
:100E10006B7FC8010E94EB0483EC90E00197F1F72F
:100E2000CF911F910F9108950F931F93CF93DF934D
:100E30008C01D62FC42F607F642B0E94FB0680E1BB
:100E4000D89FB00111246C2BC801DF91CF911F9165
:100E50000F910C94FB0640E061E087E295E00E9470
:100E600014078BE39FE10197F1F70895CF93DF9388
:100E7000CDB7DEB728970FB6F894DEBF0FBECDBF53
:100E800098E0E6E0F1E0DE01119601900D929A956E
:100E9000E1F790912F05981708F48FEF90E0880FF5
:100EA000991F21E030E02C0F3D1F820F931FFC01A2
:100EB0006081606840E087E295E028960FB6F8947C
:100EC000DEBF0FBECDBFDF91CF910C94140741E080
:100ED0000E94140781E090E00895CF93DF93EC0126
:100EE00088819981009711F00E94971719821882C2
:100EF0001D821C821B821A82DF91CF910895FC0112
:100F000080819181009711F00C9497170895FB014F
:100F100001900020E9F73197AF01461B570BDC0128
:100F2000ED91FC910280F381E02D09940F931F93C2
:100F3000CF93DF93EC0188819981009759F02A8142
:100F40003B812617370730F081E0DF91CF911F9169
:100F50000F9108958B016F5F7F4F0E9420180097BB
:100F600059F0998388831B830A832C813D81232B2D
:100F700059F7FC011082E8CF80E0E7CFEF92FF92B3
:100F80000F931F93CF93DF936115710541F480E0B8
:100F9000DF91CF911F910F91FF90EF900895411530
:100FA0005105B1F07B01EC010C811D81040F151F6F
:100FB000B8010E949607882351F3288139818C81DA
:100FC0009D81B701820F931F0E94F1181D830C832E
:100FD00081E0DECFEF92FF920F931F93CF93DF93C9
:100FE000CDB7DEB728970FB6F894DEBF0FBECDBFE2
:100FF0007C01CB014AE08E010F5F1F4FB8010E94B8
:10100000E715F80101900020E9F73197AF01401B87
:10101000510BB801C7010E94BE07811103C0C7016F
:101020000E946D07C70128960FB6F894DEBF0FBE69
:10103000CDBFDF91CF911F910F91FF90EF90089559
:10104000CF93DF93EC01FB01448155816081718175
:101050000E94BE07811103C0CE010E946D07CE0120
:10106000DF91CF910895EF92FF920F931F93CF934B
:10107000DF93EC017B018A01BA010E94960781117E
:101080000BC0CE010E946D07CE01DF91CF911F9161
:101090000F91FF90EF9008951D830C83B701888115
:1010A00099810E94F118F0CFFC0111821082138205
:1010B000128215821482FB0101900020E9F731971A
:1010C000AF01461B570B0C94330885ED8093BC0091
:1010D0008091BE029091BF02A091C002B091C10266
:1010E0000796A11DB11D23E0B695A7959795879505
:1010F0002A95D1F72091BC0024FD03C0109207036C
:1011000008954091BE025091BF026091C00270915B
:10111000C102452B462B472B69F30097A105B1056A
:1011200041F025E32A95F1F700000197A109B109E3
:10113000E1CF8091BD020C944404EF92FF920F9393
:101140001F93CF93DF93CDB7DEB762970FB6F894B6
:10115000DEBF0FBECDBF8C01CB01F8011182108222
:1011600013821282158214824AE09E012F5F3F4F44
:101170007901B9010E94E715F70101900020E9F714
:101180003197AF014E195F09B701C8010E943308BA
:1011900062960FB6F894DEBF0FBECDBFDF91CF9140
:1011A0001F910F91FF90EF9008951F920F920FB62D
:1011B0000F9211242F933F934F935F936F937F93DD
:1011C0008F939F93AF93BF93EF93FF9380E793E049
:1011D0000E943402FF91EF91BF91AF919F918F9147
:1011E0007F916F915F914F913F912F910F900FBE23
:1011F0000F901F9018951F920F920FB60F92112407
:101200002F938F939F93EF93FF93E0918003F0913F
:1012100081038081E0918603F091870382FD1BC0EA
:101220009081809189038F5F8F7320918A03821749
:1012300041F0E0918903F0E0E059FC4F958F8093F5
:101240008903FF91EF919F918F912F910F900FBE86
:101250000F901F9018958081F4CF1F920F920FB6B8
:101260000F9211242F933F938F939F93AF93BF932C
:1012700080913B0390913C03A0913D03B0913E03CC
:1012800030912D0323E0230F2D3758F50196A11D32
:10129000B11D20932D0380933B0390933C03A093B7
:1012A0003D03B0933E0380912E0390912F03A091B4
:1012B0003003B09131030196A11DB11D80932E031F
:1012C00090932F03A0933003B0933103BF91AF915C
:1012D0009F918F913F912F910F900FBE0F901F9074
:1012E000189526E8230F0296A11DB11DD2CF1F929B
:1012F0000F920FB60F9211242F933F934F935F934A
:101300006F937F938F939F93AF93BF93EF93FF93CD
:101310008091B900887F803609F44AC0F0F58832A0
:1013200009F4A7C018F5803109F49BC0B8F48823EC
:1013300009F4F9C0883009F494C0FF91EF91BF918E
:10134000AF919F918F917F916F915F914F913F915D
:101350002F910F900FBE0F901F901895883109F4B0
:1013600088C0803251F78093060314C0803409F49A
:101370009DC040F48033B9F38833F9F680930603B7
:1013800085ECB0C0803509F485C0883509F496C075
:10139000883499F60E946508D0CF883909F48CC04A
:1013A00038F5883729F050F4883611F0803729F65F
:1013B00083E0809307031092050357C0883809F42F
:1013C0007BC0803919F0803809F0B7CF80910503D0
:1013D000803208F071C0E091050381E08E0F8093A8
:1013E00005038091BB00F0E0EB51FD4F80833DC0D1
:1013F000803B39F0E0F4803A09F479C0883A09F08A
:101400009CCF84E0809307031092E4021092E302E1
:10141000E0913403F091350309958091E302811145
:101420000FC081E08093E3021092C30209C0803CA8
:1014300009F4A6CF883C09F4A3CF883B09F07DCFFF
:10144000E091E40281E08E0F8093E402F0E0ED533E
:10145000FD4F80818093BB009091E4028091E30274
:1014600029C080912C038093BB0085EC8093BC0045
:1014700064CF90912B0380912A03981758F5E0913F
:101480002B0381E08E0F80932B03F0E0E65FFC4F8F
:101490008081E9CFE0912B0381E08E0F80932B03B5
:1014A0008091BB00F0E0E65FFC4F808390912B03BE
:1014B00080912A039817C8F285E8D8CFE0912B03D2
:1014C00081E08E0F80932B038091BB00F0E0E65FFC
:1014D000FC4F80838091090381115CCF81E0809370
:1014E000080384EA8093BC001092070326CF85ECA2
:1014F0008093BC001092070380910503803230F482
:10150000E0910503F0E0EB51FD4F1082609105037F
:1015100070E0E0913203F091330385EE92E009959B
:10152000109205030ACF1092060334CF1F920F9238
:101530000FB60F9211242F933F934F935F936F93A6
:101540007F938F939F93AF93BF93CF93DF93EF934B
:10155000FF9380917A02C0913D04D0E087FF24C0C0
:10156000109285001092840080917A028F5F8093A0
:101570007A0280917A02082E000C990B8C179D0735
:1015800024F480917A028C30C4F18091840090918F
:101590008500049680349C4908F47AC080918400C8
:1015A00090918500049676C080917A02082E000CF6
:1015B000990B8C179D07C4F6E0917A028E2FEE0FDF
:1015C000990BFC01EE0FFF1FE80FF91FE75EFB4FC1
:1015D000808186FFC9CFE0917A028E2FEE0F990BA2
:1015E000FC01EE0FFF1FE80FF91FE75EFB4F808144
:1015F00060E08F730E94EC02B7CF2091840030919D
:101600008500E0917A028E2FEE0F990BFC01EE0F10
:10161000FF1FE80FF91FE75EFB4F81819281820F68
:10162000931F9093890080938800E0917A028E2F17
:10163000EE0F990BFC01EE0FFF1FE80FF91FE75E9D
:10164000FB4F808186FF11C0E0917A028E2FEE0F52
:10165000990BFC01EE0FFF1FE80FF91FE75EFB4F30
:10166000808161E08F730E94EC02FF91EF91DF9126
:10167000CF91BF91AF919F918F917F916F915F912A
:101680004F913F912F910F900FBE0F901F90189583
:1016900080E49CE990938900809388008FEF809389
:1016A0007A02E3CF1F920F920FB60F9211242F935D
:1016B0003F934F935F936F937F938F939F93AF93DA
:1016C000BF93EF93FF93E0914004F0914104908128
:1016D00080914204982320914304309144042F3F89
:1016E000320731F02F5F3F4F30934404209343047F
:1016F00080913E04811135C0911116C020914304A0
:10170000309144042536310558F010924504309349
:1017100048042093470481E08093460480933E046C
:10172000109244041092430480915B05813041F48F
:1017300080915A05911161C061E0811161C02D9ABB
:10174000FF91EF91BF91AF919F918F917F916F9199
:101750005F914F913F912F910F900FBE0F901F906F
:10176000189580913E048130A1F49923E9F2E0912B
:1017700046048E0F80934604F0E0EE0FFF1FE25CFC
:10178000FB4F20914304309144043287218782E04B
:10179000C5CF80913E04823039F5911119C0E09196
:1017A000460481E0E03720F08093450483E0B6CF23
:1017B0008E0F80934604F0E0EE0FFF1FE25CFB4FBC
:1017C00020914304309144043287218781E0A6CFE1
:1017D00020914304309144042536310508F4A4CF08
:1017E00083E080933E04A0CF80913E04833009F0D3
:1017F0009BCF992309F494CF97CF882321F060E001
:101800000E94EC029DCF2D989BCF109273031092F3
:10181000720388EE93E0A0E0B0E0809374039093AD
:101820007503A0937603B093770322E131E0309300
:1018300071032093700325EC30E030937D032093F7
:101840007C0324EC30E030937F0320937E0320EC74
:1018500030E0309381032093800321EC30E030931B
:1018600083032093820322EC30E03093850320939E
:10187000840326EC30E03093870320938603109294
:10188000890310928A0310928B0310928C0310929A
:10189000100410920F048093110490931204A093EB
:1018A0001304B093140484E291E090930E048093A7
:1018B0000D048EE394E0909374058093730580E0AB
:1018C0000E94080110925A0580913D048C3098F5D1
:1018D00091E0980F90933D048093570590E0FC01B0
:1018E000EE0FFF1FE80FF91FE75EFB4F88EB9BE051
:1018F000928381838EE394E090934B0580934A0515
:1019000084E00E94080110925A0510922A05109254
:10191000290586E391E0909328058093270587E2C7
:1019200080932B0580E18093300582E08093310520
:101930001092320508958FEF80935705DBCFCF9338
:10194000DF93CDB7DEB7E9970FB6F894DEBF0FBED1
:10195000CDBF789484B5826084BD84B5816084BD38
:1019600085B5826085BD85B5816085BD80916E003D
:10197000816080936E00109281008091810082606E
:1019800080938100809181008160809381008091AB
:1019900080008160809380008091B100846080939A
:1019A000B1008091B00081608093B00080917A0096
:1019B000846080937A0080917A00826080937A00BC
:1019C00080917A00816080937A0080917A008068AB
:1019D00080937A001092C100E0918003F09181031E
:1019E00082E08083E0917C03F0917D031082E0919E
:1019F0007E03F0917F038FEC808310928803E09147
:101A00008403F091850386E08083E0918203F09166
:101A10008303808180618083E0918203F09183035E
:101A2000808188608083E0918203F09183038081CC
:101A300080688083E0918203F091830380818F7DB1
:101A4000808360E082E00E941A0361E089E00E94E6
:101A50001A0361E08AE00E941A0361E08BE00E94B1
:101A60001A03809157058C3008F051C061E083E083
:101A70000E941A0380915705282F30E0F901EE0FDC
:101A8000FF1FE20FF31FE75EFB4F9081907C936096
:101A9000908310925805109259052CE0622F0E94F5
:101AA000CE16829FB001112430E020E0AB01420F3E
:101AB000531FFA01EE0FFF1FE40FF51FE75EFB4F08
:101AC000908196FD16C02F5F3F4F2C30310571F786
:101AD00081110FC01092800082E0809381001092EB
:101AE000850010928400B19A80916F00826080938B
:101AF0006F00E09157058E2F90E0FC01EE0FFF1F65
:101B0000E80FF91FE75EFB4F8081806480838EE1E0
:101B100090E00E948C0082E08093B0008093B1003E
:101B200084E68093B3008093B4001092B200809159
:101B30003E04833011F410923E0484E080937000E0
:101B40008FE491E00E94E40510923903109238036B
:101B500010923703109236030E9426048BEA91E01C
:101B600090933503809334038CEA91E09093330390
:101B70008093320310922C0580913105823018F049
:101B800098E090932C0580932F0562E370E080E04D
:101B900090E00E94CD036091320587E295E00E94BB
:101BA000EB0468EE73E080E090E00E94CD0360E318
:101BB00087E295E00E94FB060BE416E4C80101975A
:101BC000F1F760E387E295E00E94FB06C801019708
:101BD000F1F760E387E295E00E94FB0683E592E07F
:101BE0000197F1F760E287E295E00E94FB066091C1
:101BF0002C05606240E087E295E00E94140784E0D3
:101C000080932D0540E06CE087E295E00E94140788
:101C10000E942B0782E080932E0540E066E087E279
:101C200095E00E94140740E062E087E295E00E94A0
:101C300014078BE39FE10197F1F788E08093320569
:101C400060E087E295E00E94EB0488248A94982C57
:101C50005401B9E72B2EB3E03B2E8FB7F894C09018
:101C60003B03D0903C03E0903D03F0903E038FBFD8
:101C7000809169038111C2C0809168036BE571E0B6
:101C8000882311F06FE571E083E693E00E94F1187C
:101C900080E00E94360762E671E087E295E00E94EC
:101CA000870781E00E94360761E771E0CE018296E6
:101CB0000E9454081A8219821C821B821E821D8275
:101CC0006AA17BA16115710531F04EA15FA1CE0122
:101CD00001960E943308E3E6F3E001900020E9F763
:101CE000AF014456534063E673E0CE0101960E9473
:101CF000BE07811104C0CE0101960E946D07CE017E
:101D000001960E94DA01CE0101960E947F07CE0162
:101D100082960E947F0780913E04833009F097C32A
:101D200080913A0381110FC066EC71E080E793E087
:101D30000E94870762E672E080E793E00E948707CF
:101D400081E080933A0327E434E030934C032093FE
:101D50004B038091460480934D0390914504992351
:101D600021F01092450410924604909145049093FE
:101D70004E031092430310924403109245031092B5
:101D8000460390E890933D052091490430914A0420
:101D9000265831092C35310590F4843009F0D3C12F
:101DA00080914B0490914C048197489740F4809126
:101DB0004D0490914E040897089708F402C2809150
:101DC0004D038A3108F432C2E0914B03F0914C0389
:101DD000208131812A30310508F007C21092470373
:101DE0008092430390924403A0924503B09246032D
:101DF00081E080933D0582E190E0F2C18091620331
:101E0000811144C00E9436076BE771E087E295E0DC
:101E10000E94870781E00E94360765E871E0CE01E5
:101E200001960E9454088FE593E00E94C9158C0129
:101E30006DE871E0CE0188960E9454081BA21AA298
:101E40001DA21CA21FA21EA268A579A5611571057D
:101E500031F04CA55DA5CE0182960E943308B801F1
:101E6000CE0182960E94EA07BE016F5F7F4F0E94FB
:101E700020080E94DA01CE0182960E947F07CE01DF
:101E800088960E947F07CE01019643CF8FE593E0AD
:101E90000E94C91540915B0350915C0360915D0302
:101EA00070915E038A019B010C191D092E093F09DF
:101EB0006801790120E63AEEDC010E94EE166C0D15
:101EC0007D1D8E1D9F1D6093570370935803809353
:101ED000590390935A0320E83EEE46E350E00E94F7
:101EE0003416309356032093550320E63AEE40E033
:101EF00050E00E943416309354032093530328EE8D
:101F000033E040E050E00E943416309352032093B7
:101F100051037093500360934F0380E00E94360793
:101F200064E971E087E295E00E94870781E00E9402
:101F3000360764EA71E0CE0101960E9454080091D0
:101F40004F031091500369EA71E0CE0182960E941E
:101F50005408E0905103F09052036CEA71E0CE0116
:101F600088960E945408C0905303D09054036FEA9F
:101F700071E0CE018E960E945408609155037091D5
:101F80005603CE01C4960E949D08BE01625D7F4F3C
:101F9000CE01C4960E942008B6010E94EA07BE0145
:101FA000685D7F4F0E942008B7010E94EA07BE01CA
:101FB0006E5D7F4F0E942008B8010E94EA07BE01B3
:101FC0006F5F7F4F0E9420080E94DA01CE01C49605
:101FD0000E947F07CE018E960E947F07CE018896D1
:101FE0000E947F07CE0182960E947F07CE01019654
:101FF0000E947F078091570390915803A091590345
:10200000B0915A0385369105A105B10508F083CE3C
:102010000E942B0780E00E94360762EB71E087E2A6
:1020200095E00E94870781E00E94360763EC71E02B
:10203000CE0101960E94540869EA71E0CE018296B1
:102040000E94540800915103109152036CEA71E010
:10205000CE0188960E945408E0905303F0905403F8
:102060006FEA71E0CE018E960E945408609155038C
:1020700070915603CE01C4960E949D08BE01625D18
:102080007F4FCE01C4960E942008B7010E94EA0744
:10209000BE01685D7F4F0E942008B8010E94EA07D8
:1020A000BE016E5D7F4F0E94200870E060E00E94DC
:1020B000EA07BE016F5F7F4F0E9420080E94DA018D
:1020C000CE01C4960E947F07CE018E960E947F07A4
:1020D000CE0188960E947F07CE0182960E947F07DC
:1020E000CE0101960E947F07109268030E94D605D8
:1020F000109269031092620310925F0310925703CB
:10210000109258031092590310925A0310925603DA
:1021100010925503109254031092530310925203DD
:10212000109251031092500310924F0368EB7BE022
:1021300080E090E00E94CD030E942B0785E591E0AE
:102140000E94E405E8CD843409F039CE80914B0437
:1021500090914C04825491098F9708F030CE20E37F
:1021600032E040E956E060E372E080E20E946A06F5
:10217000882309F424CEE0914B03F0914C03EA57F5
:10218000FF4F808191810897089708F018CE8091C1
:102190003E0590913F05A0914005B0914105809387
:1021A000430390934403A0934503B093460380E216
:1021B0008093470387E090E09093400380933F0330
:1021C0000FC0109247038092430390924403A09261
:1021D0004503B092460381E880933D0587E090E097
:1021E0009093340580933305CBC0228133812452F0
:1021F00031092A313105D0F443E050E060E0C12CD0
:10220000D12C760190E04817590708F053C024817B
:102210003581285031092830310540F42681378135
:102220002231310588F120323105C8F181E08093F7
:102230006F0330926D0320926C0310926E030E9424
:102240002501813009F03AC1C12CD12C760110E072
:10225000E0914A05F0914B05908580916F038917B5
:1022600008F03FC00E942501082F0E94250101119E
:102270002EC0813009F022C1CC0CDD1CEE1CFF1CED
:102280006894C0F81F5FE4CF2930310578F221311E
:10229000310560F6CC0CDD1CEE1CFF1C06C0CC0C1E
:1022A000DD1CEE1CFF1C6894C0F86F5F4E5F5F4F33
:1022B0003496A9CF60934703C0924303D09244035E
:1022C000E0924503F092460382E190E075CF013041
:1022D00009F0F4C08111F2C0CC0CDD1CEE1CFF1C17
:1022E000D1CF812F90E090933C0580933B05C09225
:1022F0003E05D0923F05E0924005F09241058C2DBD
:102300008F7390E09093380580933705960146E0EF
:10231000369527954A95E1F72F7133273093360587
:1023200020933505960122273071232B31F4805CF0
:102330009F4F909338058093370580E8D3FC88E859
:1023400080933D05818592858F3C994028F480914A
:102350003D05816080933D058EE090E090933405CB
:102360008093330510934703C0924303D0924403F4
:10237000E0924503F09246039093400380933F031D
:10238000009143031091440320914503309146038B
:1023900019A2BE016F5D7F4FD901C8018F709927C7
:1023A000AA27BB2794E036952795179507959A9508
:1023B000D1F78A300CF0ECC2805DFB018293BF0143
:1023C000011511052105310539F7EF2B21F080E7C3
:1023D00093E00E94870762E672E080E793E00E9444
:1023E00087078091430390914403A0914503B091E6
:1023F00046038D3AF2E59F07FFEFAF07B10509F4F9
:10240000B9C308F0E9C28F3C10E391071FEFA107A1
:10241000B10509F45BC308F0BDC28F3E30E19307FC
:102420003FEFA307B10509F475C3873E9841AF4F4D
:10243000B10509F457C36AEF70E080E090E00E94B4
:10244000CD0380913E04833011F410923E04EEE7F8
:10245000F0E08491E0EBF0E00491ECE9F0E014911D
:102460001123F9F081110E94C302E12FF0E0EE0F79
:10247000FF1FE057FF4FA591B491EC910E2389F017
:102480008091680391E0892780936803882309F489
:102490007DC30E94ED066AEF70E080E090E00E944C
:1024A000CD0380E090E0892B09F4D7CB0E94200275
:1024B000882309F4CECB0E940000CBCBE0914A05E3
:1024C000F0914B058385948588974D9708F046C019
:1024D000858596850C970B9708F040C083E0809324
:1024E0006F038CEB91E090936D0380936C031092DB
:1024F0006E030E942501813089F50E94250181111A
:102500002DC0C12CD12C760110E0E0914A05F0914C
:102510004B05908580916F03891708F066C00E9473
:102520002501782E1330B1F00E942501082F1330B9
:1025300021F40E942501081311C081E078124BC0DC
:1025400001110CC0CC0CDD1CEE1CFF1C6894C0F803
:102550001F5FDBCF0E942501781631F380914D0378
:10256000823608F487C0E0914B03F0914C038281DE
:102570009381C397859708F07DC0848195814A97A0
:10258000439708F077C020EB31E040E155E060EB85
:1025900071E08CE20E946A06882309F46BC080E334
:1025A0008093470380913E0590913F05A09140059F
:1025B000B09141058093430390934403A093450356
:1025C000B093460382E090E29093420380934103EC
:1025D00088E090E0F1CD7110C1CF013009F0BECF9D
:1025E000CC0CDD1CEE1CFF1CB3CF812F90E0909330
:1025F0003C0580933B05C0923E05D0923F05E0929A
:102600004005F09241052C2D30E08D2D1432F8F468
:1026100080E880933D0530933805209337058D2D54
:1026200090E09093360580933505E0FE03C088E87E
:1026300080933D058185928583379A4028F4809167
:102640003D05816080933D058FE090E087CE90E866
:1026500090933D05D7FE03C098E890933D053093D5
:102660003805209337058F7790E090933605809357
:102670003505E0CF80914D038C33E1F5E0914B03BC
:10268000F0914C0382819381865891098D35910593
:1026900088F584819581CE978C9760F526E232E0AB
:1026A0004CE256E064EF71E08CE10E946A068823F8
:1026B00009F1E0914B03F0914C03EA58FF4F808100
:1026C000918107970897B0F480913E0590913F055E
:1026D000A0914005B091410580934303909344033A
:1026E000A0934503B09346038CE18093470385E0B4
:1026F00090E062CD40914D03E0914B03F0914C038B
:1027000082819381423289F49C012850310927301B
:10271000310558F4DF01AE5BBF4F2D913C9128503D
:1027200031092730310508F45AC08D579109873592
:10273000910508F464C0E0914B03F0914C03828151
:102740009381835491098F9780F480914D03843055
:1027500009F08CC0848195818197489730F48681F7
:1027600097810897089708F4ADC0E0914A05F09169
:102770004B058085823209F0B5C0E0914B03F091A2
:102780004C03828193810497059708F0ABC0848144
:1027900095810B970A9708F0A5C02CE033E04CE137
:1027A00057E064E071E08FE00E946A06882309F434
:1027B00099C080913E0590913F05A0914005B09150
:1027C00041058093430390934403A0934503B09342
:1027D00046038FE08093470382E090E0EDCC1092B7
:1027E00047038092430390924403A0924503B09222
:1027F000460381E080933D0584E090E0F1CC4432D3
:1028000008F499CF84819581CE978C9708F093CF67
:102810002EE032E04AE256E06EE072E080E10E9493
:102820006A06882309F487CFE0914B03F0914C03AB
:10283000EA5BFF4F808191810897079708F07BCF73
:1028400080913E0590913F05A0914005B0914105D2
:102850008093430390934403A0934503B0934603AE
:1028600080E18093470384E090E0A6CC843408F4B0
:102870007CCF84819581825491098F9708F075CF20
:1028800020E332E040E956E060E372E080E20E943B
:102890006A06882309F469CF80913E0590913F052F
:1028A000A0914005B0914105809343039093440368
:1028B000A0934503B093460380E28093470380E1F1
:1028C00090E07ACC109247038092430390924403A5
:1028D000A0924503B092460381E080933D0580E1DC
:1028E00090E07ECC00914D03063008F4AACDE09133
:1028F0004B03F0914C03329625EC3DE94CE151E855
:1029000013E08AE0F82E8481958161917191F89E9F
:102910006001F99ED00C1124DB01AA0FBB1FAA0F86
:10292000BB1FAA0FBB1FE12CCA16DB0688F0F69E60
:10293000D001F79EB00D112473E0880F991F7A958E
:10294000E1F762E0E62EA817B90710F0EE24E39451
:1029500063E971E080E091E00E9424169B01AC01E4
:102960002E251F5F0113CFCF2093430330934403E1
:10297000409345035093460380E2809347031092AF
:10298000400310923F031092340510923305F8CCA7
:10299000895C13CD8D3BF2E49F07FFEFAF07B105D4
:1029A00009F4D0C0853B0AE490070FEFA007B105FA
:1029B00009F4D4C0873C9843AF4FB10509F03BCD33
:1029C00080916903882309F436CD809162036FE614
:1029D00072E0811130CD22C085382AE792072FEFAF
:1029E000A207B10509F48AC0F0F4853AEAE59E072A
:1029F000EFEFAE07B10509F499C087399846AF4F9C
:102A0000B10509F018CD80916903882309F413CD2D
:102A10008091620365E672E081110DCD8FE593E050
:102A20000E94E61808CD8D3302EC90070FEFA00747
:102A3000B105D1F08F3110EE91071FEFA107B1055D
:102A400061F08735984AAF4FB10509F0F4CC81E0C9
:102A5000809368030E94ED0604C0109268030E94F0
:102A6000D6050E942B07E7CC80916903811108C02D
:102A700081E08093690388E491E00E94E405F1CF4E
:102A800080916203811119C081E0809362032FB7A6
:102A9000F89480913B0390913C03A0913D03B09149
:102AA0003E032FBF80935B0390935C03A0935D0371
:102AB000B0935E0382E491E0E0CF10925F03109246
:102AC0006203109269038EE391E0D7CF809169038E
:102AD000882309F4B0CC8091620367E672E081112B
:102AE000AACC9CCF80916903882309F4A4CC80915F
:102AF000620369E672E081119ECC90CF80916903F8
:102B0000882309F498CC809162036BE672E081110E
:102B100092CC84CF80916903882309F48CCC809176
:102B200062036DE672E0811186CC78CF80916903F3
:102B3000882309F480CC8091620361E772E08111FF
:102B40007ACC6CCF80916903882309F474CC80918E
:102B5000620363E772E081116ECC60CF80916903FC
:102B6000882309F468CC8091620365E772E08111E3
:102B700062CC54CF80916903882309F45CCC8091A6
:102B80006203811158CC67E772E048CF0E94D605F6
:102B900082CCFC0188279927E89421912032E9F31F
:102BA000293010F02E30C8F32B3241F02D3239F499
:102BB000689404C00E94F215820F911D2191205348
:102BC0002A30C0F31EF4909581959F4F0895BB273E
:102BD0004A3031F4992322F4BDE2909581959F4FBC
:102BE0000C94FB157AE0979F902D879F802D910D77
:102BF00011240895BB27FB015527AA27880F991F89
:102C0000AA1FA41710F0A41B83955051B9F7A05D1B
:102C1000AA3308F0A95DA193009779F7B111B19398
:102C20001192CB010C941416DC01FC01672F7191F9
:102C30007723E1F7329704C07C916D9370836291A2
:102C4000AE17BF07C8F30895DB018F939F930E94CF
:102C50007516BF91AF91A29F800D911DA39F900DFE
:102C6000B29F900D11240895A1E21A2EAA1BBB1B3E
:102C7000FD010DC0AA1FBB1FEE1FFF1FA217B30748
:102C8000E407F50720F0A21BB30BE40BF50B661F5E
:102C9000771F881F991F1A9469F760957095809522
:102CA00090959B01AC01BD01CF010895052E97FBC6
:102CB0001EF400940E946D1657FD07D00E94341632
:102CC00007FC03D04EF40C946D165095409530954A
:102CD00021953F4F4F4F5F4F089590958095709588
:102CE00061957F4F8F4F9F4F08950E94BF16A59FFC
:102CF000900DB49F900DA49F800D911D11240895F7
:102D0000B7FF0C9475160E947516821B930B0895DD
:102D10002F923F924F925F926F927F928F929F92EB
:102D2000AF92BF92CF92DF92EF92FF920F931F93D9
:102D3000CF93DF93CDB7DEB7CA1BDB0B0FB6F8948A
:102D4000DEBF0FBECDBF09942A88398848885F84CA
:102D50006E847D848C849B84AA84B984C884DF803B
:102D6000EE80FD800C811B81AA81B981CE0FD11D1F
:102D70000FB6F894DEBF0FBECDBFED010895A29F40
:102D8000B001B39FC001A39F700D811D1124911D3F
:102D9000B29F700D811D1124911D0895991B79E03A
:102DA00004C0991F961708F0961B881F7A95C9F7DB
:102DB00080950895AA1BBB1B51E107C0AA1FBB1F2A
:102DC000A617B70710F0A61BB70B881F991F5A95B7
:102DD000A9F780959095BC01CD0108950E94BF167A
:102DE000B7FF0895821B930B0895EE0FFF1F059008
:102DF000F491E02D09940F931F93CF93DF938230CA
:102E0000910510F482E090E0E0918205F091830555
:102E100030E020E0B0E0A0E0309799F421153105D2
:102E200009F44AC0281B390B24303105D8F58A81B2
:102E30009B816115710589F1FB0193838283FE01FA
:102E400011C0408151810281138148175907E0F078
:102E50004817590799F4109761F012960C9312973E
:102E600013961C933296CF01DF91CF911F910F9152
:102E700008950093820510938305F4CF2115310541
:102E800051F04217530738F0A901DB019A01BD0147
:102E9000DF01F801C1CFEF01F9CF90938305809353
:102EA0008205CDCFFE01E20FF31F81939193225053
:102EB000310939832883D7CF20918005309181054E
:102EC000232B41F4209102013091030130938105BD
:102ED00020938005209100013091010121153105D9
:102EE00041F42DB73EB74091040150910501241BD8
:102EF000350BE0918005F0918105E217F307A0F40E
:102F00002E1B3F0B2817390778F0AC014E5F5F4F3F
:102F10002417350748F04E0F5F1F509381054093EB
:102F20008005819391939FCFF0E0E0E09CCFCF9319
:102F3000DF930097E9F0FC01329713821282A0918F
:102F40008205B0918305ED0130E020E01097A1F4F7
:102F500020813181820F931F20918005309181055E
:102F60002817390709F061C0F0938105E0938005C7
:102F7000DF91CF910895EA01CE17DF07E8F54A8186
:102F80005B819E0141155105B1F7E901FB83EA839D
:102F900049915991C40FD51FEC17FD0761F4808149
:102FA00091810296840F951FE9019983888382811C
:102FB00093819B838A83F0E0E0E012968D919C914F
:102FC00013970097B9F52D913C911197CD01029679
:102FD000820F931F209180053091810528173907B2
:102FE00039F6309751F51092830510928205B0930F
:102FF0008105A0938005BCCFD383C28340815181DA
:10300000840F951FC817D90761F44E5F5F4F888101
:103010009981480F591F518340838A819B819383F3
:1030200082832115310509F0B0CFF0938305E09339
:1030300082059ECFFD01DC01C0CF13821282D7CF63
:10304000B0E0A0E0E6E2F8E10C948A168C0100976B
:1030500051F4CB010E94FB168C01C801CDB7DEB73D
:10306000E0E10C94A616FC01E60FF71F9C0122502C
:103070003109E217F30708F49DC0D901CD91DC9125
:103080001197C617D70798F0C530D10530F3CE0198
:1030900004978617970708F3C61BD70B2297C1938F
:1030A000D1936D937C93CF010E949717D6CF5B018C
:1030B000AC1ABD0A4C018C0E9D1EA0918205B091E8
:1030C0008305512C412CF12CE12C109731F5809186
:1030D0008005909181058815990509F05CC0461618
:1030E000570608F058C080910001909101010097A7
:1030F00041F48DB79EB74091040150910501841BA6
:10310000950BE817F90708F055C0F0938105E09397
:103110008005F90171836083A0CF8D919C911197F7
:1031200012966C90129713967C901397A815B90578
:1031300059F56C0142E0C40ED11CCA14DB0420F125
:10314000AC014A195B09DA011296159780F0628288
:10315000738251834083D9016D937C93E114F10410
:1031600071F0D7011396FC93EE93129776CF2296C7
:103170008C0F9D1FF90191838083F301EFCFF093B2
:103180008305E093820569CF4816590608F42C019F
:103190007D01D3019ACFCB010E94FB167C010097E1
:1031A00049F0AE01B8010E94DD18C8010E949717CE
:1031B000870153CF10E000E050CFFB01DC0102C0DB
:1031C00001900D9241505040D8F70895FB01DC0169
:1031D0000D900020E9F7119701900D920020E1F782
:1031E0000895FB01DC0101900D920020E1F70895A4
:1031F000F894FFCF00008405800000004000140018
:103200005400000000005602AD01E301A3021402C5
:10321000F201060200000000BC048F04D30565041F
:10322000880475046604000000006707AD01D3053B
:10323000D20572656400677265656E0079656C6CB5
:103240006F7700776869746500626C696E6B004F18
:103250004646004F4E004C69676874205377697486
:10326000636865720043757272656E743A2000532C
:1032700065742054696D6572006D696E757465734F
:1032800000547970653A20004C69676874206F6655
:1032900066206166746572006D73202000732000E3
:1032A0006D20006820004C69676874207475726E28
:1032B0006564206F6666006D7300546865206675EE
:1032C0006E6374696F6E206465636F64652826722F
:1032D0006573756C74732929206973206465707235
:1032E00065636174656420616E64206D6179206E30
:1032F0006F7420776F726B206173206578706563DF
:1033000074656421204A7573742075736520646543
:10331000636F6465282920776974686F757420610C
:1033200020706172616D6574657220616E64204900
:103330007252656365697665722E6465636F646554
:10334000644952446174612E3C6669656C646E61C7
:103350006D653E202E000D0A003000310032003332
:0E336000003400350036003700380039000018
:107E0000112484B714BE81FFF0D085E080938100F7
:107E100082E08093C00088E18093C10086E0809377
:107E2000C20080E18093C4008EE0C9D0259A86E02C
:107E300020E33CEF91E0309385002093840096BBD3
:107E4000B09BFECF1D9AA8958150A9F7CC24DD24C4
:107E500088248394B5E0AB2EA1E19A2EF3E0BF2EE7
:107E6000A2D0813461F49FD0082FAFD0023811F036
:107E7000013811F484E001C083E08DD089C08234E0
:107E800011F484E103C0853419F485E0A6D080C0E4
:107E9000853579F488D0E82EFF2485D0082F10E0AE
:107EA000102F00270E291F29000F111F8ED06801E7
:107EB0006FC0863521F484E090D080E0DECF843638
:107EC00009F040C070D06FD0082F6DD080E0C81688
:107ED00080E7D80618F4F601B7BEE895C0E0D1E017
:107EE00062D089930C17E1F7F0E0CF16F0E7DF06D8
:107EF00018F0F601B7BEE89568D007B600FCFDCFD4
:107F0000A601A0E0B1E02C9130E011968C91119780
:107F100090E0982F8827822B932B1296FA010C0160
:107F200087BEE89511244E5F5F4FF1E0A038BF0790
:107F300051F7F601A7BEE89507B600FCFDCF97BE46
:107F4000E89526C08437B1F42ED02DD0F82E2BD052
:107F50003CD0F601EF2C8F010F5F1F4F84911BD097
:107F6000EA94F801C1F70894C11CD11CFA94CF0C13
:107F7000D11C0EC0853739F428D08EE10CD085E9AC
:107F80000AD08FE07ACF813511F488E018D01DD067
:107F900080E101D065CF982F8091C00085FFFCCF94
:107FA0009093C60008958091C00087FFFCCF809118
:107FB000C00084FD01C0A8958091C6000895E0E648
:107FC000F0E098E1908380830895EDDF803219F02E
:107FD00088E0F5DFFFCF84E1DECF1F93182FE3DFCA
:107FE0001150E9F7F2DF1F91089580E0E8DFEE27F6
:047FF000FF270994CA
:027FFE00040479
:00000001FF
