:100000000C9462000C948A000C948A000C948A0070
:100010000C948A000C948A000C948A000C948A0038
:100020000C9470050C948A000C948A000C94B4040F
:100030000C948A000C948A000C948A000C948A0018
:100040000C946A040C948A000C9438040C941204E6
:100050000C948A000C948A000C948A000C948A00F8
:100060000C948A000C948A000000000025002800EF
:100070002B0000000000240027002A0000000008D8
:10008000000201000003040700000000000000005F
:1000900000000000230026002900040404040404D6
:1000A0000404020202020202030303030303010227
:1000B00004081020408001020408102001020408F6
:1000C0001020230611241FBECFEFD8E0DEBFCDBF26
:1000D00011E0A0E0B1E0E6E0FAE102C005900D9287
:1000E000A23BB107D9F723E0A2EBB1E001C01D921A
:1000F000AC3CB207E1F710E0C2E6D0E004C02197C3
:10010000FE010E94FB0CC136D107C9F70E9496067A
:100110000C94010D0C940000CF92DF92EF92FF92AD
:10012000DC01A03282E0B807D4F5A53BB10514F09C
:10013000A4EBB0E04091A40328E830E0241B31098F
:1001400047FD3395220F331F220F331F6901330FF1
:10015000EE08FF084091A50328E532E0241B310991
:1001600047FD3395220F331F220F331F032E000C40
:10017000440B550B2C193D094E095F09B7FF02C00E
:10018000B0E0A0E00E94C40C24EB30E040E050E07E
:100190000E949A0CC20ED31EE41EF51ED601E091F9
:1001A000A303EC3080F52091A40388E890E0821B43
:1001B000910927FD9395880F991F880F991FA817FC
:1001C000B90784F02091A50388E592E0821B91098C
:1001D00027FD9395880F991F880F991FA817B907B6
:1001E0000CF4CD010297880F991F4FB7F8942E2F6A
:1001F00030E0F901EE0FFF1FE20FF31FEF58FD4F44
:10020000928381834FBFFF90EF90DF90CF9008954E
:10021000A6E9B2E011968C93119790E0FC01E255AB
:10022000FF4FE4911496EC931497FC01E656FF4FB0
:10023000E491F0E0EE0FFF1FE057FF4F859194919E
:1002400013969C938E93129708950F931F93CF93B9
:10025000DF93E0919603F09197034091D30180855D
:1002600010E0481708F064C0142F11700091D201FB
:1002700001114FC0842F90E0880F991FE80FF91FDC
:100280000184F285E02D2CEE3FEF112311F024E1E3
:1002900030E0C091D001D091D1012C0F3D1FC90198
:1002A00063E470E00E94E70CE617F70760F0C9010D
:1002B00068E270E00E94E70C6F5F7F4F81E090E0A2
:1002C0006E177F0710F52C0F3D1FC90163E470E026
:1002D0000E94E70CE617F70750F0C90168E270E0EA
:1002E0000E94E70C6F5F7F4F6E177F0760F42C0F43
:1002F0003D1FC90163E470E00E94E70CE617F707B1
:10030000E8F41FEF15C082E090E09093CF01809356
:10031000CE010F5F0093D2018091CE019091CF0169
:100320000817190628F01092D2014F5F4093D301AD
:10033000812FDF91CF911F910F910895C90168E23C
:1003400070E00E94E70C6F5F7F4F6E177F07C8F267
:1003500083E090E0DACFAF92BF92CF92DF92EF923C
:10036000FF920F931F93CF93DF936C017B018B015F
:10037000040F151FEB015E01AE18BF08C017D107AF
:1003800059F06991D601ED91FC910190F081E02D39
:10039000C6010995892B79F7C501DF91CF911F918E
:1003A0000F91FF90EF90DF90CF90BF90AF900895A6
:1003B000FC01538D448D252F30E0842F90E0821B6B
:1003C000930B541710F0CF96089501970895FC01F0
:1003D000918D828D981761F0A28DAE0FBF2FB11D48
:1003E0005D968C91928D9F5F9F73928F90E00895A0
:1003F0008FEF9FEF0895FC01918D828D981731F05A
:10040000828DE80FF11D858D90E008958FEF9FEFAD
:100410000895FC01918D228D892F90E0805C9F4F83
:10042000821B91098F739927089584ED91E00E94B2
:10043000090221E0892B09F420E0822F089580E051
:1004400090E0892B29F00E94150281110C94000084
:100450000895FC01A48DA80FB92FB11DA35ABF4F59
:100460002C91848D90E001968F739927848FA689B3
:10047000B7892C93A089B1898C91837080648C9307
:10048000938D848D981306C00288F389E02D8081B6
:100490008F7D80830895EF92FF920F931F93CF93E8
:1004A000DF93EC0181E0888F9B8D8C8D98131AC0AF
:1004B000E889F989808185FF15C09FB7F894EE8996
:1004C000FF896083E889F9898081837080648083F3
:1004D0009FBF81E090E0DF91CF911F910F91FF903E
:1004E000EF900895F62E0B8D10E00F5F1F4F0F73E6
:1004F0001127E02E8C8D8E110CC00FB607FCFACFA1
:10050000E889F989808185FFF5CFCE010E94290213
:10051000F1CFEB8DEC0FFD2FF11DE35AFF4FF08271
:100520009FB7F8940B8FEA89FB8980818062CFCFD7
:10053000CF93DF93EC01888D8823B9F0AA89BB891A
:10054000E889F9898C9185FD03C0808186FD0DC005
:100550000FB607FCF7CF8C9185FFF2CF808185FF26
:10056000EDCFCE010E942902E9CFDF91CF9108950E
:10057000833081F028F4813099F08230A9F0089519
:100580008730A9F08830C9F08430B1F480918000C0
:100590008F7D03C0809180008F77809380000895C5
:1005A00084B58F7784BD089584B58F7DFBCF80910E
:1005B000B0008F778093B00008958091B0008F7D58
:1005C000F9CF1F93CF93DF93282F30E0F901E45840
:1005D000FF4F8491F901E255FF4FD491F901E6569E
:1005E000FF4FC491CC23A9F0162F81110E94B802AD
:1005F000EC2FF0E0EE0FFF1FE859FF4FA591B491EB
:100600008FB7F894EC91111108C0D095DE23DC93DC
:100610008FBFDF91CF911F910895DE2BF8CF3FB7A9
:10062000F8948091B8019091B901A091BA01B0916C
:10063000BB0126B5A89B05C02F3F19F00196A11D4F
:10064000B11D3FBFBA2FA92F982F8827BC01CD011C
:10065000620F711D811D911D42E0660F771F881F7B
:10066000991F4A95D1F708958F929F92AF92BF92AA
:10067000CF92DF92EF92FF924B015C010E940F0339
:100680006B017C010E940F036C197D098E099F0983
:10069000683E734081059105A8F321E0821A910814
:1006A000A108B10888EEC80E83E0D81EE11CF11C39
:1006B00081149104A104B10429F7FF90EF90DF9019
:1006C000CF90BF90AF909F908F90089590E080E082
:1006D0000E948C0068EE73E080E090E00E9434039A
:1006E0008EE190E00C948C007F928F929F92AF925B
:1006F000BF92CF92DF92EF92FF920F931F93CF930F
:10070000DF93782EEA01E0919603F09197033F96EC
:100710008B010C5E1F4F43E4C42ED12CC801B601DF
:100720000E94E70C5B0158E2E52EF12CC801B701ED
:100730000E94E70C8B010F5F1F4F6497CE01B6013B
:100740000E94E70C4B01CE01B7010E94E70CEB01C0
:10075000219624513109C901B6010E94E70C6B01B1
:10076000C901B7010E94E70C6F5F7F4F20E030E0C6
:10077000A901A0E0808191818A159B0570F108177D
:10078000190758F1828193818815990518F1C817C6
:10079000D90728F1220F331F441F551F21603496BB
:1007A000AF5F7A12E7CF20938A0330938B03409395
:1007B0008C0350938D0381E0DF91CF911F910F91B6
:1007C000FF90EF90DF90CF90BF90AF909F908F9071
:1007D0007F9008958C159D0510F480E0EDCF68178B
:1007E0007907D8F3220F331F441F551FD8CF8CE34E
:1007F00090E00E948C0068EE73E080E090E00E9440
:1008000034038EE190E00C948C00FC0101900020F8
:10081000E9F73197AF01481B590BBC0184ED91E01A
:100820000C94AB011F920F920FB60F9211242F93CD
:100830003F934F935F936F937F938F939F93AF9368
:10084000BF93EF93FF9384ED91E00E942902FF9103
:10085000EF91BF91AF919F918F917F916F915F9138
:100860004F913F912F910F900FBE0F901F901895B1
:100870001F920F920FB60F9211242F938F939F9375
:10088000EF93FF93E091E401F091E5018081E09125
:10089000EA01F091EB0182FD1BC090818091ED0196
:1008A0008F5F8F732091EE01821741F0E091ED018F
:1008B000F0E0EC52FE4F958F8093ED01FF91EF91A8
:1008C0009F918F912F910F900FBE0F901F901895B1
:1008D0008081F4CF1F920F920FB60F9211242F93A5
:1008E0003F938F939F93AF93BF938091B401909167
:1008F000B501A091B601B091B7013091B30123E0E9
:10090000230F2D3758F50196A11DB11D2093B3017A
:100910008093B4019093B501A093B601B093B70151
:100920008091B8019091B901A091BA01B091BB0139
:100930000196A11DB11D8093B8019093B901A093B8
:10094000BA01B093BB01BF91AF919F918F913F913D
:100950002F910F900FBE0F901F90189526E8230F30
:100960000296A11DB11DD2CF1F920F920FB60F920A
:1009700011242F933F934F935F936F937F938F93A4
:100980009F93AF93BF93CF93DF93EF93FF938091A8
:10099000B201C0919502D0E087FF24C0109285007B
:1009A000109284008091B2018F5F8093B201809198
:1009B000B201082E000C990B8C179D0724F480912E
:1009C000B2018C30C4F1809184009091850004962E
:1009D00080349C4908F47AC080918400909185000D
:1009E000049676C08091B201082E000C990B8C17EA
:1009F0009D07C4F6E091B2018E2FEE0F990BFC011A
:100A0000EE0FFF1FE80FF91FEF58FD4F808186FFA3
:100A1000C9CFE091B2018E2FEE0F990BFC01EE0FC2
:100A2000FF1FE80FF91FEF58FD4F808160E08F73C3
:100A30000E94E102B7CF2091840030918500E091BF
:100A4000B2018E2FEE0F990BFC01EE0FFF1FE80F86
:100A5000F91FEF58FD4F81819281820F931F909370
:100A6000890080938800E091B2018E2FEE0F990BE0
:100A7000FC01EE0FFF1FE80FF91FEF58FD4F8081BB
:100A800086FF11C0E091B2018E2FEE0F990BFC0191
:100A9000EE0FFF1FE80FF91FEF58FD4F808161E057
:100AA0008F730E94E102FF91EF91DF91CF91BF918F
:100AB000AF919F918F917F916F915F914F913F91F6
:100AC0002F910F900FBE0F901F90189580E49CE916
:100AD00090938900809388008FEF8093B201E3CFD9
:100AE0001F920F920FB60F9211242F933F934F93A3
:100AF0005F936F937F938F939F93AF93BF93EF9386
:100B0000FF93E0919802F0919902908180919A026E
:100B1000982320919B0230919C022F3F320731F0A5
:100B20002F5F3F4F30939C0220939B02809196024F
:100B3000811135C0911116C020919B0230919C0209
:100B40002536310558F010929D023093A002209373
:100B50009F0281E080939E028093960210929C02F5
:100B600010929B028091A703813041F48091A603EB
:100B7000911161C061E0811161C02D9AFF91EF91E7
:100B8000BF91AF919F918F917F916F915F914F91A5
:100B90003F912F910F900FBE0F901F90189580914D
:100BA00096028130A1F49923E9F2E0919E028E0F22
:100BB00080939E02F0E0EE0FFF1FEA56FD4F20915A
:100BC0009B0230919C023287218782E0C5CF8091C1
:100BD0009602823039F5911119C0E0919E0281E0B0
:100BE000E03720F080939D0283E0B6CF8E0F809394
:100BF0009E02F0E0EE0FFF1FEA56FD4F20919B0290
:100C000030919C023287218781E0A6CF20919B0200
:100C100030919C022536310508F4A4CF83E08093FF
:100C20009602A0CF80919602833009F09BCF992342
:100C300009F494CF97CF882321F060E00E94E1026D
:100C40009DCF2D989BCF1092D7011092D60188EEA0
:100C500093E0A0E0B0E08093D8019093D901A093F5
:100C6000DA01B093DB0184E091E09093D5018093A9
:100C7000D40185EC90E09093E1018093E00184EC55
:100C800090E09093E3018093E20180EC90E09093F8
:100C9000E5018093E40181EC90E09093E70180937B
:100CA000E60182EC90E09093E9018093E80186EC04
:100CB00090E09093EB018093EA011092ED01109285
:100CC000EE011092EF011092F00186E992E090930C
:100CD000C0038093BF0380E00E9408011092A60326
:100CE000809195028C30F0F491E0980F90939502EA
:100CF0008093A30390E0FC01EE0FFF1FE80FF91FA4
:100D0000EF58FD4F88EB9BE09283818386E992E068
:100D1000909397038093960384E00E9408011092B9
:100D2000A60308958FEF8093A303F0CFCF93DF93B3
:100D3000CDB7DEB7A1970FB6F894DEBF0FBECDBF1B
:100D4000789484B5826084BD84B5816084BD85B5A6
:100D5000826085BD85B5816085BD80916E008160B2
:100D600080936E0010928100809181008260809358
:100D7000810080918100816080938100809180005A
:100D80008160809380008091B10084608093B10085
:100D90008091B00081608093B00080917A0084607F
:100DA00080937A0080917A00826080937A008091AB
:100DB0007A00816080937A0080917A0080688093C5
:100DC0007A001092C100E091E401F091E50182E027
:100DD0008083E091E001F091E1011082E091E20175
:100DE000F091E3018FEC80831092EC01E091E80137
:100DF000F091E90186E08083E091E601F091E7015E
:100E0000808180618083E091E601F091E70180813B
:100E100088608083E091E601F091E701808180683D
:100E20008083E091E601F091E70180818F7D8083EE
:100E3000E0EBF0E02491ECE9F0E084918823C9F044
:100E400090E0880F991FFC01EE58FF4FA591B491D7
:100E5000FC01E859FF4F459154913FB7F8949C919C
:100E6000822F809598239C93FA0190818923808317
:100E70003FBF8091A3038C3008F068C0E1EBF0E045
:100E80002491EDE9F0E08491882399F090E0880FB7
:100E9000991FFC01EE58FF4FA591B491FC01E85950
:100EA000FF4F859194918FB7F894EC91E22BEC93DE
:100EB0008FBF8091A303282F30E0F901EE0FFF1FB1
:100EC000E20FF31FEF58FD4F9081907C9360908369
:100ED0001092A4031092A5032CE0622F0E94DB0C59
:100EE000829FB001112430E020E0AB01420F531F7C
:100EF000FA01EE0FFF1FE40FF51FEF58FD4F908131
:100F000096FD16C02F5F3F4F2C30310571F78111D0
:100F10000FC01092800082E08093810010928500C3
:100F200010928400B19A80916F00826080936F006C
:100F3000E091A3038E2F90E0FC01EE0FFF1FE80F5E
:100F4000F91FEF58FD4F8081806480838EE190E02F
:100F50000E948C0082E08093B0008093B10084E610
:100F60008093B3008093B4001092B20080919602F7
:100F7000833011F41092960284E080937000B0E107
:100F8000AB2EB12CCC24CA94DC2C760104E0202EAC
:100F9000312C80919602833009F006C18091BC010A
:100FA00081110BC082E191E00E9405048EEA91E07C
:100FB0000E94050481E08093BC018FE992E0909348
:100FC000CB018093CA0180919E028093CC019091C5
:100FD0009D02992321F010929D0210929E02909101
:100FE0009D029093CD011092C2011092C301109204
:100FF000C4011092C50190E8909389032091A10249
:101000003091A202265831092C35310588F48430FC
:1010100071F58091A3029091A4028197489740F4C2
:101020008091A5029091A6020897089708F459C0EC
:101030008091CC018A3108F40FC1E091CA01F0918E
:10104000CB01208131812A30310508F0E4C01092B3
:10105000C601C092C201D092C301E092C401F092D5
:10106000C50181E08093890382E190E049C0843426
:10107000F9F68091A3029091A402825491098F976E
:10108000B8F620E332E040E956E060E372E080E247
:101090000E947403882361F2E091CA01F091CB01B0
:1010A000EA57FF4F808191810897089708F6809151
:1010B0008A0390918B03A0918C03B0918D03809350
:1010C000C2019093C301A093C401B093C50180E213
:1010D0008093C60187E090E09093BF018093BE01AA
:1010E0000FC01092C601C092C201D092C301E0921B
:1010F000C401F092C50181E88093890387E090E004
:101100009093800380937F030091C2011091C301EB
:101110002091C4013091C50119A2CE018196B90177
:10112000A8014F7055276627772754E036952795F5
:10113000179507955A95D1F74A300CF0B5C3405D25
:10114000FC014293CF01011511052105310539F745
:10115000EF2B11F00E9405048EEA91E00E94050435
:101160008091C2019091C301A091C401B091C501C9
:101170008739F8E69F07FFEFAF07B10509F096C37F
:101180008091BD0191E089278093BD010E94660393
:101190006AEF70E080E090E00E9434038091960254
:1011A000833011F410929602EEE7F0E08491E0EBC8
:1011B000F0E00491ECE9F0E014911123F9F08111D1
:1011C0000E94B802E12FF0E0EE0FFF1FE057FF4F43
:1011D000A591B4918C91082389F08091BD0191E093
:1011E00089278093BD01882309F46FC30E94F70308
:1011F0006AEF70E080E090E00E94340380E090E0CD
:10120000892B09F4C6CE0E941502882309F4C1CEA9
:101210000E940000BECE22813381245231092A313E
:101220003105D0F443E050E060E0412C512C320114
:1012300090E04817590708F055C02481358128509F
:1012400031092830310540F42681378122313105BA
:1012500098F120323105D8F181E08093D301E9E79C
:10126000F3E0F093D101E093D0011092D2010E94FB
:101270002501813009F09DC0412C512C320110E034
:10128000E0919603F091970390858091D30189179F
:1012900008F03FC00E942501082F0E94250101117E
:1012A0002EC0813009F085C0440C551C661C771C8B
:1012B000689440F81F5FE4CF2930310568F221318E
:1012C000310550F6440C551C661C771C06C0440CB6
:1012D000551C661C771C689440F86F5F4E5F5F4F2B
:1012E0003496A7CF6093C6014092C2015092C301C9
:1012F0006092C4017092C50182E190E0EDCE0130B0
:1013000009F057C0811155C0440C551C661C771C50
:10131000D1CF812F90E090938803809387034092F0
:101320008A0350928B0360928C0370928D03842DFC
:101330008F7390E09093840380938303920146E03F
:10134000369527954A95E1F72F713327309382031D
:1013500020938103920122273071232B31F4805C8A
:101360009F4F909384038093830380E853FC88E825
:1013700080938903818592858F3C994028F48091E0
:1013800089038160809389038EE090E090938003CD
:1013900080937F031093C6014092C2015092C30113
:1013A0006092C4017092C5019093BF018093BE0109
:1013B000ABCEE0919603F09197038385948588974F
:1013C0004D9708F046C0858596850C970B9708F0D9
:1013D00040C083E08093D3018CEB91E09093D101E6
:1013E0008093D0011092D2010E942501813089F5AD
:1013F0000E94250181112DC0412C512C320110E099
:10140000E0919603F091970390858091D30189171D
:1014100008F06EC00E942501982E1330B1F00E9492
:101420002501082F133021F40E942501081311C053
:1014300091E0991253C001110CC0440C551C661C5C
:10144000771C689440F81F5FDBCF0E942501981637
:1014500031F38091CC01823608F48FC0E091CA014B
:10146000F091CB0182819381C397859708F085C065
:10147000848195814A97439708F07FC020EB31E043
:1014800040E155E060EB71E08CE20E947403882338
:1014900009F473C080E38093C60180918A03909120
:1014A0008B03A0918C03B0918D038093C201909324
:1014B000C301A093C401B093C50182E090E2909370
:1014C000C1018093C001E8E0F0E0F093BF01E09338
:1014D000BE01F0938003E0937F0316CE9110B9CF45
:1014E000013009F0B6CF440C551C661C771CABCFFD
:1014F000812F90E0909388038093870340928A0322
:1015000050928B0360928C0370928D03242D30E0F7
:10151000852D1432F8F480E8809389033093840396
:1015200020938303852D90E0909382038093810321
:1015300060FE03C088E880938903818592858337A4
:101540009A4028F4809189038160809389038FE019
:1015500090E01CCF90E89093890357FE03C098E871
:101560009093890330938403209383038F7790E0D3
:101570009093820380938103E0CF8091CC018C33E0
:10158000E1F5E091CA01F091CB0182819381865807
:1015900091098D35910588F584819581CE978C9739
:1015A00060F526E232E04CE256E064EF71E08CE157
:1015B0000E947403882309F1E091CA01F091CB01E4
:1015C000EA58FF4F8081918107970897B0F4809186
:1015D0008A0390918B03A0918C03B0918D0380932B
:1015E000C2019093C301A093C401B093C5018CE1E3
:1015F0008093C60185E090E06FCD4091CC01E091F1
:10160000CA01F091CB0182819381423289F49C011D
:10161000285031092730310558F4DF01AE5BBF4F48
:101620002D913C91285031092730310508F45AC0DA
:101630008D5791098735910508F466C0E091CA017C
:10164000F091CB0182819381835491098F9780F42B
:101650008091CC01843009F090C08481958181977C
:10166000489730F4868197810897089708F4B3C0AB
:10167000E0919603F09197038085823209F0BDC016
:10168000E091CA01F091CB01828193810497059783
:1016900008F0B3C0848195810B970A9708F0ADC01C
:1016A0002CE033E04CE157E064E071E08FE00E9411
:1016B0007403882309F4A1C080918A0390918B035D
:1016C000A0918C03B0918D038093C2019093C301CC
:1016D000A093C401B093C5018FE08093C601E2E0FE
:1016E000F0E0F3CE1092C601C092C201D092C301C5
:1016F000E092C401F092C50181E0809389033092A9
:10170000800320927F0300CD443208F497CF848178
:101710009581CE978C9708F091CF2EE032E04AE287
:1017200056E06EE072E080E10E947403882309F4C1
:1017300085CFE091CA01F091CB01EA5BFF4F808138
:1017400091810897079708F079CF80918A0390914B
:101750008B03A0918C03B0918D038093C201909371
:10176000C301A093C401B093C50180E18093C60179
:101770003092BF012092BE01C2CF843408F478CFEA
:1017800084819581825491098F9708F071CF20E36D
:1017900032E040E956E060E372E080E20E947403C8
:1017A000882309F465CF80918A0390918B03A091DF
:1017B0008C03B0918D038093C2019093C301A093D9
:1017C000C401B093C50180E28093C601B092BF010D
:1017D000A092BE010DC01092C601C092C201D0926B
:1017E000C301E092C401F092C50181E080938903B6
:1017F000B0928003A0927F0387CC0091CC01063089
:1018000008F4CCCCE091CA01F091CB01329625ECE2
:101810003DE94CE151E813E08AE0782E848195811E
:1018200061917191789E4001799E900C1124DB01A9
:10183000AA0FBB1FAA0FBB1FAA0FBB1F8A169B06AE
:1018400090F0769ED001779EB00D112473E0880F42
:10185000991F7A95E1F762E0962EA817B90720F054
:101860009924939401C0912C63E971E080E091E0A8
:101870000E94680C9B01AC0129251F5F0113CECF8C
:101880002093C2013093C3014093C4015093C5011A
:1018900080E28093C6011092BF011092BE011092A7
:1018A000800310927F0330CC495C4ACC8F3C90433C
:1018B000AF4FB10509F06CCC8091BD0191E0892753
:1018C0008093BD010E94F70363CC0E94660390CC15
:1018D000DB018F939F930E94B90CBF91AF91A29FA0
:1018E000800D911DA39F900DB29F900D112408951E
:1018F000A1E21A2EAA1BBB1BFD010DC0AA1FBB1F14
:10190000EE1FFF1FA217B307E407F50720F0A21B85
:10191000B30BE40BF50B661F771F881F991F1A94F2
:1019200069F760957095809590959B01AC01BD011C
:10193000CF010895052E97FB1EF400940E94B10C70
:1019400057FD07D00E94780C07FC03D04EF40C948E
:10195000B10C50954095309521953F4F4F4F5F4FBB
:10196000089590958095709561957F4F8F4F9F4F0B
:1019700008950E94CC0CA59F900DB49F900DA49F3C
:10198000800D911D11240895B7FF0C94B90C0E948D
:10199000B90C821B930B0895A29FB001B39FC001A5
:1019A000A39F700D811D1124911DB29F700D811D8B
:1019B0001124911D0895991B79E004C0991F961771
:1019C00008F0961B881F7A95C9F780950895AA1B81
:1019D000BB1B51E107C0AA1FBB1FA617B70710F01A
:1019E000A61BB70B881F991F5A95A9F7809590954C
:1019F000BC01CD010895EE0FFF1F0590F491E02D7D
:061A00000994F894FFCFE9
:101A0600000000004B02AB01D80198020902E70171
:101A1600FB015468652066756E6374696F6E206499
:101A260065636F64652826726573756C74732929FE
:101A360020697320646570726563617465642061F2
:101A46006E64206D6179206E6F7420776F726B20E3
:101A5600617320657870656374656421204A7573C7
:101A66007420757365206465636F64652829207723
:101A76006974686F7574206120706172616D657438
:101A8600657220616E642049725265636569766588
:101A9600722E6465636F6465644952446174612E95
:101AA6003C6669656C646E616D653E202E000D0AAC
:021AB60000002E
:00000001FF
